{
  "contractName": "SendMoney",
  "abi": [
    {
      "anonymous": false,
      "inputs": [
        {
          "indexed": false,
          "internalType": "uint256",
          "name": "balance",
          "type": "uint256"
        }
      ],
      "name": "balance",
      "type": "event"
    },
    {
      "inputs": [],
      "name": "balanceReceived",
      "outputs": [
        {
          "internalType": "uint256",
          "name": "",
          "type": "uint256"
        }
      ],
      "stateMutability": "view",
      "type": "function",
      "constant": true
    },
    {
      "inputs": [],
      "name": "LockedTime",
      "outputs": [
        {
          "internalType": "uint256",
          "name": "",
          "type": "uint256"
        }
      ],
      "stateMutability": "view",
      "type": "function",
      "constant": true
    },
    {
      "inputs": [],
      "name": "receiveMoney",
      "outputs": [],
      "stateMutability": "payable",
      "type": "function",
      "payable": true
    },
    {
      "inputs": [],
      "name": "getBalance",
      "outputs": [
        {
          "internalType": "uint256",
          "name": "",
          "type": "uint256"
        }
      ],
      "stateMutability": "view",
      "type": "function",
      "constant": true
    },
    {
      "inputs": [],
      "name": "withdrawMoney",
      "outputs": [],
      "stateMutability": "nonpayable",
      "type": "function"
    }
  ],
  "bytecode": "0x60806040524260015562015180600154610019919061002e565b60025534801561002857600080fd5b506100bd565b600061003982610084565b915061004483610084565b9250827fffffffffffffffffffffffffffffffffffffffffffffffffffffffffffffffff038211156100795761007861008e565b5b828201905092915050565b6000819050919050565b7f4e487b7100000000000000000000000000000000000000000000000000000000600052601160045260246000fd5b6103dd806100cc6000396000f3fe60806040526004361061004a5760003560e01c806312065fe01461004f578063429eb5701461007a57806352a90c42146100a55780636d26ec18146100d0578063ac446002146100da575b600080fd5b34801561005b57600080fd5b506100646100f1565b60405161007191906102ec565b60405180910390f35b34801561008657600080fd5b5061008f6100f9565b60405161009c91906102ec565b60405180910390f35b3480156100b157600080fd5b506100ba610103565b6040516100c791906102ec565b60405180910390f35b6100d8610109565b005b3480156100e657600080fd5b506100ef61015b565b005b600047905090565b6000600254905090565b60035481565b346003600082825461011b9190610318565b925050819055507f47bb89f0fc234008e53c79bc3e3dab90e27502d1380a4b3cc35038d57fa03d2a3460405161015191906102ec565b60405180910390a1565b60008054906101000a900473ffffffffffffffffffffffffffffffffffffffff1673ffffffffffffffffffffffffffffffffffffffff163373ffffffffffffffffffffffffffffffffffffffff16146101e9576040517f08c379a00000000000000000000000000000000000000000000000000000000081526004016101e0906102cc565b60405180910390fd5b60003390508073ffffffffffffffffffffffffffffffffffffffff166108fc6102106100f1565b9081150290604051600060405180830381858888f1935050505015801561023b573d6000803e3d6000fd5b507f47bb89f0fc234008e53c79bc3e3dab90e27502d1380a4b3cc35038d57fa03d2a6102656100f1565b60405161027291906102ec565b60405180910390a150565b600061028a601183610307565b91507f796f7520617265206e6f74206f776e65720000000000000000000000000000006000830152602082019050919050565b6102c68161036e565b82525050565b600060208201905081810360008301526102e58161027d565b9050919050565b600060208201905061030160008301846102bd565b92915050565b600082825260208201905092915050565b60006103238261036e565b915061032e8361036e565b9250827fffffffffffffffffffffffffffffffffffffffffffffffffffffffffffffffff0382111561036357610362610378565b5b828201905092915050565b6000819050919050565b7f4e487b7100000000000000000000000000000000000000000000000000000000600052601160045260246000fdfea2646970667358221220907ee6e07af2558b8ef3653d7a479eb8cfe0cb1ba68c24f654322b7e2ccfd9d764736f6c63430008000033",
  "immutableReferences": {},
  "source": "// SPDX-License-Identifier: GPL-3.0\npragma solidity ^0.8.0;\n\ncontract SendMoney  {\n    address private owner;\n    \n    uint256 timestamp = block.timestamp;\n    uint256 Locked_time = timestamp + 86400;\n\n\n    uint public balanceReceived;\n    event balance (uint256 balance);\n\n  function Admin() private { owner = msg.sender; }\nfunction LockedTime () public view returns(uint256){\n    return Locked_time;\n    \n    // return timestamp;\n}\n//    function abc1() override public { \n//        abc();\n\n\n// }\n\n\n\n\n    function receiveMoney() public payable {\n        balanceReceived += msg.value;\n        emit balance(msg.value);\n\n    }\n\n    function getBalance() public view returns(uint256) {\n        return address(this).balance;\n    }\n    \n    function withdrawMoney() public {\n        // require(timestamp == Locked_time , \"Amount is locked  \" );\n        require(msg.sender  == owner , \"you are not owner\");\n        address payable to = payable(msg.sender);\n        to.transfer(getBalance());\n        emit balance (getBalance());\n    }\n}",
  "sourcePath": "/home/ayushsharma/Desktop/314-eth-bsc-bridge/contracts/SendMoney.sol",
  "compiler": {
    "name": "solc",
    "version": "0.8.0+commit.c7dfd78e.Emscripten.clang"
  },
  "schemaVersion": "3.4.7",
  "updatedAt": "2022-06-24T08:48:45.130Z",
  "networkType": "ethereum",
  "devdoc": {
    "kind": "dev",
    "methods": {},
    "version": 1
  },
  "userdoc": {
    "kind": "user",
    "methods": {},
    "version": 1
  }
}